:100000000C9438000C94E1010C94E1010C94E10192
:100010000C94E1010C94E1010C94E1010C94E101D8
:100020000C94E1010C94E1010C94E1010C94E101C8
:100030000C94E1010C94E1010C94E1010C94E101B8
:100040000C94E1010C94E1010C94E1010C94E101A8
:100050000C94E1010C94E1010C94E1010C94E10198
:100060000C94E1010C94E101010001390003D0007E
:1000700011241FBECFEFD8E0DEBFCDBFE8E6F0E031
:1000800040E017C0B591A59135912591059107FDE7
:100090000CC095918591EF01F92FE82F05900D92F5
:1000A000A217B307D9F7FE0104C01D92A217B30728
:1000B000E1F7EF36F40731F70E946A000C94C701AC
:0400C000F894FFCFE2
:1000C400313233463435364537383944413042438A
:1000D400CF93DF93CDB7DEB728970FB6F894DEBF82
:1000E4000FBECDBF8FEF84B99FE09AB98BB9109240
:1000F400C10061E380E090E00E94D20162E381E00C
:1001040090E00E94D20163E382E090E00E94D20179
:1001140064E383E090E00E94D2010E94FD0083E248
:1001240091E00E94B30160E080EC0E94880180E3CA
:1001340091E00E94B3017E0125E0E20EF11C00E093
:1001440010E0C8010E94DA01F70181937F010F5F7B
:100154001F4F04301105A9F76E01F5E0CF0ED11C35
:10016400CE0101967C0107EC0E944801182F8F3FB5
:10017400D9F360E0802F0E94880161E0812F0E9402
:100184008801F70111937F010F5F0B3C69F7998197
:100194008D81981327C0FE013296DE011696919147
:1001A4008D9198131FC0EC15FD05C9F712C0FFE728
:1001B4002AE186E0F15020408040E1F700C00000D1
:1001C40060E081E00E94880180E391E00E94B30135
:1001D400C7CF60E080EC0E94880182E191E00E9438
:1001E400B301E5CF60E080EC0E94880180E091E0FB
:0601F4000E94B301DCCF04
:1001FA002C982D9887E893E10197F1F700C0000049
:10020A0085B1807F836085B900002D9A00002D9802
:10021A009FE09A95F1F781EE94E00197F1F700C01B
:10022A00000000002D9A00002D989FE09A95F1F7A2
:10023A0082E48A95F1F700C000002D9A00002D98FB
:10024A009FE09A95F1F785B1807F826085B90000B9
:10025A002D9A00002D988FE08A95F1F760E088E2E8
:10026A000E94880160E088E00E94880160E081E0E5
:10027A000E94880160E08CE00E94880160E080E8CA
:06028A000E9488010895A6
:100290000F931F93CF93DF93A0E0B0E08FEF01E0C7
:1002A00010E09BB1E8010A2E02C0CC0FDD1F0A94BA
:1002B000E2F72C2F209592239BB9EFE3FCE93197CD
:1002C000F1F700C0000049B142954F70FD01EC53B9
:1002D000FF4F20E030E050E0BA01022E02C07595D9
:1002E00067950A94E2F760FD01C084912F5F3F4F4C
:1002F00034962430310581F79BB1C92BCBB91196C7
:10030000A430B10571F6DF91CF911F910F9108953F
:10031000611102C02C9801C02C9A95B1907F282FB2
:1003200022952F70922B95B900002D9A00002D98E0
:100330009FE09A95F1F795B1907F282F2F70922B1F
:1003400095B900002D9A00002D989FE09A95F1F73D
:10035000611108C0843030F483EF91E00197F1F728
:0603600000C0000008953A
:10036600CF93DF93EC01FC018491882351F0FE01C9
:10037600849161E00E9488012196FE018491811199
:08038600F6CFDF91CF9108953D
:10038E00EC010E94E6010E94E501CE010E94E70108
:06039E00CE010E94E30104
:1003A400F999FECF92BD81BD60BDFA9AF99A08957C
:0E03B400F999FECF92BD81BDF89A80B50895EB
:0403C2000C94000097
:0403C6000E94600031
:0203CA00089594
:0203CC00089592
:0203CE00089590
:1003D00053656E686120696E636F72726574612126
:0203E00000001B
:1003E20053656E686120636F7272657461212000CB
:0103F200000A
:0D03F3005465636C61646F20347834000041
:0904000053656E68613A200000AA
:00000001FF
