:100000000C9438000C9442020C9442020C9442026C
:100010000C9442020C9442020C9442020C94420250
:100020000C9442020C9442020C9442020C94420240
:100030000C9442020C9442020C9442020C94420230
:100040000C9442020C9442020C9442020C94420220
:100050000C9442020C9442020C9442020C94420210
:100060000C9442020C9442020100014000049200F0
:1000700011241FBECFEFD8E0DEBFCDBFE8E6F0E031
:1000800040E017C0B591A59135912591059107FDE7
:100090000CC095918591EF01F92FE82F05900D92F5
:1000A000A217B307D9F7FE0104C01D92A217B30728
:1000B000E1F7EF36F40731F70E9462000C94280252
:0400C000F894FFCFE2
:1000C400CF93DF93CDB7DEB728970FB6F894DEBF92
:1000D4000FBECDBF8FEF84B99FE09AB990EF9BB963
:1000E40087B961E380E090E00E94330262E381E03B
:1000F40090E00E94330263E382E090E00E943302C6
:1001040064E383E090E00E9433020E94A20180E253
:1001140091E00E94180260E080EC0E94ED0188E307
:1001240091E00E9418026E0125E0C20ED11C00E08D
:1001340010E0C8010E943B02F60181936F010F5F3A
:100144001F4F04301105A9F700E0A12CB12CF12CAC
:100154006E01F5E0CF0ED11C03C000E001C001E048
:100164004398449845988FE493EC0197F1F700C0C5
:1001740000000E944D01182F8F3F79F30111F0CF39
:1001840061E00E94ED01E1E0F0E0EC0FFD1FEF0DF6
:10019400F11D1083F39494E0F912E1CF99818D81DC
:1001A400981368C0FE013296DE01169691918D91E6
:1001B400981360C0EC15FD05C9F752C0439AEFE7E8
:1001C400F4E82EE1E150F0402040E1F700C00000E7
:1001D40043988FE794E8EEE181509040E040E1F7E6
:1001E40000C00000439AFFE724E88EE1F15020406C
:1001F4008040E1F700C0000043989FE7E4E8FEE197
:100204009150E040F040E1F700C00000439A2FE72E
:1002140084E89EE1215080409040E1F700C0000056
:100224004398EFE7F4E82EE1E150F0402040E1F795
:1002340000C00000A12CB12C8FEF98E0EDE38150B9
:100244009040E040E1F700C0000060E081E00E94DF
:10025400ED0188E391E00E94180201E0F12C80CFC7
:1002640060E080EC0E94ED0181E191E00E941802BF
:10027400459AE2CF60E080EC0E94ED0180E091E0DD
:100284000E941802449AFFEFAF1ABF0A23E0A21695
:06029400B10491F693CFC6
:10029A001F93CF93DF9320E030E0CFEFE1E0F0E06F
:1002AA0012E0D0E0CBB98BB1B901AF01022E02C086
:1002BA00440F551F0A94E2F7942F909589238BB91E
:1002CA008FE19EE40197F1F700C0000089B18077C1
:1002DA0090E09595879595958795959587959595A8
:1002EA008795DC01A170BB2780FF08C081FF05C08C
:1002FA0082FD1BC0A12FBD2F01C0DF01CB01880FDA
:10030A00991F680F791F645D7E4FA60FB71F8C91E6
:10031A009BB1492B4BB98F3F61F42F5F3F4F24307C
:10032A00310509F0BFCF8FEF04C08BB1482B4BB911
:0A033A00F4CFDF91CF911F910895D9
:100344002C982D9887E893E10197F1F700C00000FD
:1003540085B1807F836085B900002D9A00002D98B7
:100364009FE09A95F1F781EE94E00197F1F700C0D0
:10037400000000002D9A00002D989FE09A95F1F757
:1003840082E48A95F1F700C000002D9A00002D98B0
:100394009FE09A95F1F785B1807F826085B900006E
:1003A4002D9A00002D988FE08A95F1F760E088E29D
:1003B4000E94ED0160E088E00E94ED0160E081E0D0
:1003C4000E94ED0160E08CE00E94ED0160E080E8B5
:0603D4000E94ED010895F6
:1003DA00611102C02C9801C02C9A95B1907F282FE8
:1003EA0022952F70922B95B900002D9A00002D9816
:1003FA009FE09A95F1F795B1907F282F2F70922B55
:10040A0095B900002D9A00002D989FE09A95F1F772
:10041A00611108C0843030F483EF91E00197F1F75D
:06042A0000C0000008956F
:10043000CF93DF93EC018881882339F0219661E026
:100440000E94ED0189918111FACFDF91CF9108953A
:10045000EC010E9447020E944602CE010E9448021F
:06046000CE010E944402DF
:10046600F999FECF92BD81BD60BDFA9AF99A0895B9
:0E047600F999FECF92BD81BDF89A80B5089528
:040484000C940000D4
:040488000E9460006E
:02048C000895D1
:02048E000895CF
:020490000895CD
:1004920053656E686120696E636F72726574612163
:0104A2000059
:0F04A30053656E686120636F727265746121002A
:0C04B2005465636C61646F203478340082
:0C04BE003132333435363738392A3023D8
:0804CA0053656E68613A2000E1
:00000001FF
