:100000000C9438000C9400020C9400020C94000232
:100010000C9400020C9400020C9400020C94000258
:100020000C9400020C9400020C9400020C94000248
:100030000C9400020C9400020C9400020C94000238
:100040000C9400020C9400020C9400020C94000228
:100050000C9400020C9400020C9400020C94000218
:100060000C9400020C9400020100014000040E00F8
:1000700011241FBECFEFD8E0DEBFCDBFE8E6F0E031
:1000800040E017C0B591A59135912591059107FDE7
:100090000CC095918591EF01F92FE82F05900D92F5
:1000A000A217B307D9F7FE0104C01D92A217B30728
:1000B000E1F7EF36F40731F70E9462000C94E60195
:0400C000F894FFCFE2
:1000C400CF93DF93CDB7DEB728970FB6F894DEBF92
:1000D4000FBECDBF8FEF84B99FE09AB990EF9BB963
:1000E40087B961E380E090E00E94F10162E381E07E
:1000F40090E00E94F10163E382E090E00E94F1014C
:1001040064E383E090E00E94F1010E94600180E2D8
:1001140091E00E94D60160E080EC0E94AB0188E38C
:1001240091E00E94D6016E0125E0C20ED11C00E0D0
:1001340010E0C8010E94F901F60181936F010F5F7D
:100144001F4F04301105A9F700E0F12C6E01F5E012
:10015400CF0ED11C03C000E001C001E044984598D3
:100164008FE493EC0197F1F700C000000E940B01AB
:10017400182F8F3F81F30111F1CF60E087EC8F0DD1
:100184000E94AB0161E0812F0E94AB01E1E0F0E04D
:10019400EC0FFD1FEF0DF11D1083F39494E0F912A1
:1001A400DCCF99818D8198132AC0FE013296DE013D
:1001B400169691918D91981322C0EC15FD05C9F7FF
:1001C40014C0EFE7F4E82EE1E150F0402040E1F7FD
:1001D40000C0000060E081E00E94AB0188E391E090
:1001E4000E94D60101E0F12CB9CF60E080EC0E94BE
:1001F400AB0181E191E00E94D601459AE2CF60E033
:1002040080EC0E94AB0180E091E00E94D601449A08
:02021400D8CF41
:100216001F93CF93DF9320E030E0CFEFE1E0F0E0F3
:1002260012E0D0E0CBB98BB1B901AF01022E02C00A
:10023600440F551F0A94E2F7942F909589238BB9A2
:100246008FE19EE40197F1F700C0000089B1807745
:1002560090E095958795959587959595879595952C
:100266008795DC01A170BB2780FF08C081FF05C010
:1002760082FD1BC0A12FBD2F01C0DF01CB01880F5E
:10028600991F680F791F645D7E4FA60FB71F8C916B
:100296009BB1492B4BB98F3F61F42F5F3F4F243001
:1002A600310509F0BFCF8FEF04C08BB1482B4BB996
:0A02B600F4CFDF91CF911F9108955E
:1002C0002C982D9887E893E10197F1F700C0000082
:1002D00085B1807F836085B900002D9A00002D983C
:1002E0009FE09A95F1F781EE94E00197F1F700C055
:1002F000000000002D9A00002D989FE09A95F1F7DC
:1003000082E48A95F1F700C000002D9A00002D9834
:100310009FE09A95F1F785B1807F826085B90000F2
:100320002D9A00002D988FE08A95F1F760E088E221
:100330000E94AB0160E088E00E94AB0160E081E0D8
:100340000E94AB0160E08CE00E94AB0160E080E8BD
:060350000E94AB010895BC
:10035600611102C02C9801C02C9A95B1907F282F6C
:1003660022952F70922B95B900002D9A00002D989A
:100376009FE09A95F1F795B1907F282F2F70922BD9
:1003860095B900002D9A00002D989FE09A95F1F7F7
:10039600611108C0843030F483EF91E00197F1F7E2
:0603A60000C000000895F4
:1003AC00CF93DF93EC018881882339F0219661E0AB
:1003BC000E94AB0189918111FACFDF91CF91089501
:1003CC00EC010E9405020E940402CE010E9406026A
:0603DC00CE010E940202A6
:1003E200F999FECF92BD81BD60BDFA9AF99A08953E
:0E03F200F999FECF92BD81BDF89A80B50895AD
:040400000C94000058
:040404000E946000F2
:02040800089555
:02040A00089553
:02040C00089551
:10040E0053656E686120696E636F727265746121E7
:01041E0000DD
:0F041F0053656E686120636F72726574612100AE
:0C042E005465636C61646F203478340006
:0C043A003132333435363738392A30235C
:0804460053656E68613A200065
:00000001FF
